:0400000002001132B7
:03000B000200B53B
:05006A00E4F508F509B2
:0300A40002000E49
:03000E000200A746
:1000A7001200E91200CA9000071200F980F5C0E0BB
:1000B700C0D0C28C0508E4B508020509D28CD0D09F
:0300C700D0E03254
:10006F00E4F51AF51B750AC0750BF9750CA4750D1F
:10007F00B0750E99750F927510827511F875128003
:10008F007513907514887515837516C67517A17538
:05009F00188675198EA2
:1000CA00E51A240AF98790051AE4B51A02051BC332
:1000DA00740F951AE4951B5005E4F51AF51B227561
:1000EA008901758C3C758AB0D2AFD2A9D28C22AE66
:1000FA0082AF83EE2EFEEF33FFC3E5089EE5099F2C
:08010A0040F7E4F508F50922B5
:06004000E478FFF6D8FD94
:10001E007900E94400601B7A00900116780175A002
:10002E0000E493F2A308B8000205A0D9F4DAF27541
:02003E00A0FF21
:100046007800E84400600A790175A000E4F309D855
:10005600FC7800E84400600C7900900001E4F0A30D
:04006600D8FCD9FAEF
:0D00110075811B120112E582600302000ED2
:0401120075820022D0
:00000001FF
