:1000A700758901758C3C758AB0D2AFD2A9D28C22E2
:1000B700AE82AF83EE2EFEEF33FFC3E51A9EE51B3C
:0900C7009F40F7E4F51AF51B2235
:10006A00E4F518F5197508C07509F9750AA4750B30
:10007A00B0750C99750D92750E82750FF875108012
:10008A007511907512887513837514C67515A17547
:05009A00168675178EAB
:1000D000E5182408F987900518E4B518020519C336
:0F00E000740F9518E495195005E4F518F51922D9
:0400000002001132B7
:03000B000200FDF3
:08009F00E4F51AF51B02000E46
:03000E000200EFFE
:1000EF001200A71200D090000A1200B780F5C0E0EE
:1000FF00C0D0C28C051AE4B51A02051BD28CD0D021
:03010F00D0E0320B
:06004000E478FFF6D8FD94
:10001E007900E94400601B7A00900116780175A002
:10002E0000E493F2A308B8000205A0D9F4DAF27541
:02003E00A0FF21
:100046007800E84400600A790175A000E4F309D855
:10005600FC7800E84400600C7900900001E4F0A30D
:04006600D8FCD9FAEF
:0D00110075811B120112E582600302000ED2
:0401120075820022D0
:00000001FF
